00100010         2231309350001988597254075443       0122010000003852980 KMEE INFORMATICA LTDA         BANCO DO BRASIL S.A.                    11307201706223800000110300000                    MIL GRAU                                         
00100011C3001020 2231309350001988597254075443       0122010000003852980 KMEE INFORMATICA LTDA                                                 Rua Coronel Reno1275          00000ANDAR 11       Itajuba             37500050MG                  
0010001300001A0000000010388460000000126750 Ana Claudia Muniz Casagrande  167                 13072017BRL000000000000000000000000747291                                                                                               0          
0010001300002B   100017187459238Rua projetada1                00000               Projeto 01     Itajuba             37500050MG00000000000000000000000000000000000000000000000000000000000000000000000000000000000               0              
0010001300003A0000000011355511276312731891 Carolina Carvalho do Nasciment168                 13072017BRL000000000000000000000000747291                                                                                               0          
0010001300004B   100087674326788                              00000                                                  00000     00000000000000000000000000000000000000000000000000000000000000000000000000000000000               0              
0010001300005A0000000015423760000012091497 Barbara Ribeiro da Silva Mercu169                 13072017BRL000000000000000000000003099682                                                                                               0          
0010001300006B   100087437638438                              00000                                                  00000     00000000000000000000000000000000000000000000000000000000000000000000000000000000000               0              
0010001300007A0000000011237050000000957380 Carina Malafaia de Oliveira   170                 13072017BRL000000000000000000000001161560                                                                                               0          
0010001300008B   100010217421092                              00000                                                  00000     00000000000000000000000000000000000000000000000000000000000000000000000000000000000               0              
0010001300009A0000000011234560000020332443 Mariana de Albuquerque de Sa  171                 13072017BRL000000000000000000000001161560                                                                                               0          
0010001300010B   100084327483299                              00000                                                  00000     00000000000000000000000000000000000000000000000000000000000000000000000000000000000               0              
00100015         000012000000000006917384000000000000000000                                                                                                                                                                                     
00199999         000001000014000000                                                                                                                                                                                                             
